:020000040000FA
:020000002B28AB
:0800080009000A200A200A2069
:100010000A200034FA301E28C8301E2864301E28FA
:1000200032301E281E301E2814301E280A301E288A
:1000300004301E2802301E2801301E28A2000A307B
:10004000A100C830A0000000A00B2328A10B21288C
:10005000A20B1F2800342100F030990021009A1DC6
:100060002F2820008C0122008C0123008C0120000D
:100070008E0122008E0123008E0121003F308E0070
:1000800021001F308C0020008C160C208C120C20BC
:02009000432803
:020000040001F9
:02000E00A4C983
:02001000FFDD12
:00000001FF
